{
  "contractName": "TeamNft",
  "abi": [
    {
      "inputs": [],
      "stateMutability": "payable",
      "type": "constructor",
      "payable": true
    },
    {
      "anonymous": false,
      "inputs": [
        {
          "indexed": true,
          "internalType": "address",
          "name": "owner",
          "type": "address"
        },
        {
          "indexed": true,
          "internalType": "address",
          "name": "approved",
          "type": "address"
        },
        {
          "indexed": true,
          "internalType": "uint256",
          "name": "tokenId",
          "type": "uint256"
        }
      ],
      "name": "Approval",
      "type": "event"
    },
    {
      "anonymous": false,
      "inputs": [
        {
          "indexed": true,
          "internalType": "address",
          "name": "owner",
          "type": "address"
        },
        {
          "indexed": true,
          "internalType": "address",
          "name": "operator",
          "type": "address"
        },
        {
          "indexed": false,
          "internalType": "bool",
          "name": "approved",
          "type": "bool"
        }
      ],
      "name": "ApprovalForAll",
      "type": "event"
    },
    {
      "anonymous": false,
      "inputs": [
        {
          "indexed": true,
          "internalType": "address",
          "name": "previousOwner",
          "type": "address"
        },
        {
          "indexed": true,
          "internalType": "address",
          "name": "newOwner",
          "type": "address"
        }
      ],
      "name": "OwnershipTransferred",
      "type": "event"
    },
    {
      "anonymous": false,
      "inputs": [
        {
          "indexed": true,
          "internalType": "address",
          "name": "from",
          "type": "address"
        },
        {
          "indexed": true,
          "internalType": "address",
          "name": "to",
          "type": "address"
        },
        {
          "indexed": true,
          "internalType": "uint256",
          "name": "tokenId",
          "type": "uint256"
        }
      ],
      "name": "Transfer",
      "type": "event"
    },
    {
      "inputs": [
        {
          "internalType": "address",
          "name": "to",
          "type": "address"
        },
        {
          "internalType": "uint256",
          "name": "tokenId",
          "type": "uint256"
        }
      ],
      "name": "approve",
      "outputs": [],
      "stateMutability": "nonpayable",
      "type": "function"
    },
    {
      "inputs": [
        {
          "internalType": "uint256",
          "name": "",
          "type": "uint256"
        }
      ],
      "name": "avatarToOwner",
      "outputs": [
        {
          "internalType": "address",
          "name": "",
          "type": "address"
        }
      ],
      "stateMutability": "view",
      "type": "function",
      "constant": true
    },
    {
      "inputs": [
        {
          "internalType": "uint256",
          "name": "",
          "type": "uint256"
        }
      ],
      "name": "avatars",
      "outputs": [
        {
          "internalType": "string",
          "name": "name",
          "type": "string"
        },
        {
          "internalType": "string",
          "name": "img",
          "type": "string"
        },
        {
          "internalType": "uint256",
          "name": "price",
          "type": "uint256"
        }
      ],
      "stateMutability": "view",
      "type": "function",
      "constant": true
    },
    {
      "inputs": [
        {
          "internalType": "address",
          "name": "owner",
          "type": "address"
        }
      ],
      "name": "balanceOf",
      "outputs": [
        {
          "internalType": "uint256",
          "name": "",
          "type": "uint256"
        }
      ],
      "stateMutability": "view",
      "type": "function",
      "constant": true
    },
    {
      "inputs": [
        {
          "internalType": "uint256",
          "name": "tokenId",
          "type": "uint256"
        }
      ],
      "name": "getApproved",
      "outputs": [
        {
          "internalType": "address",
          "name": "",
          "type": "address"
        }
      ],
      "stateMutability": "view",
      "type": "function",
      "constant": true
    },
    {
      "inputs": [
        {
          "internalType": "address",
          "name": "owner",
          "type": "address"
        },
        {
          "internalType": "address",
          "name": "operator",
          "type": "address"
        }
      ],
      "name": "isApprovedForAll",
      "outputs": [
        {
          "internalType": "bool",
          "name": "",
          "type": "bool"
        }
      ],
      "stateMutability": "view",
      "type": "function",
      "constant": true
    },
    {
      "inputs": [],
      "name": "maxSupply",
      "outputs": [
        {
          "internalType": "uint256",
          "name": "",
          "type": "uint256"
        }
      ],
      "stateMutability": "view",
      "type": "function",
      "constant": true
    },
    {
      "inputs": [],
      "name": "mintEnabled",
      "outputs": [
        {
          "internalType": "bool",
          "name": "",
          "type": "bool"
        }
      ],
      "stateMutability": "view",
      "type": "function",
      "constant": true
    },
    {
      "inputs": [],
      "name": "name",
      "outputs": [
        {
          "internalType": "string",
          "name": "",
          "type": "string"
        }
      ],
      "stateMutability": "view",
      "type": "function",
      "constant": true
    },
    {
      "inputs": [],
      "name": "owner",
      "outputs": [
        {
          "internalType": "address",
          "name": "",
          "type": "address"
        }
      ],
      "stateMutability": "view",
      "type": "function",
      "constant": true
    },
    {
      "inputs": [],
      "name": "renounceOwnership",
      "outputs": [],
      "stateMutability": "nonpayable",
      "type": "function"
    },
    {
      "inputs": [
        {
          "internalType": "address",
          "name": "from",
          "type": "address"
        },
        {
          "internalType": "address",
          "name": "to",
          "type": "address"
        },
        {
          "internalType": "uint256",
          "name": "tokenId",
          "type": "uint256"
        }
      ],
      "name": "safeTransferFrom",
      "outputs": [],
      "stateMutability": "nonpayable",
      "type": "function"
    },
    {
      "inputs": [
        {
          "internalType": "address",
          "name": "from",
          "type": "address"
        },
        {
          "internalType": "address",
          "name": "to",
          "type": "address"
        },
        {
          "internalType": "uint256",
          "name": "tokenId",
          "type": "uint256"
        },
        {
          "internalType": "bytes",
          "name": "data",
          "type": "bytes"
        }
      ],
      "name": "safeTransferFrom",
      "outputs": [],
      "stateMutability": "nonpayable",
      "type": "function"
    },
    {
      "inputs": [
        {
          "internalType": "address",
          "name": "operator",
          "type": "address"
        },
        {
          "internalType": "bool",
          "name": "approved",
          "type": "bool"
        }
      ],
      "name": "setApprovalForAll",
      "outputs": [],
      "stateMutability": "nonpayable",
      "type": "function"
    },
    {
      "inputs": [
        {
          "internalType": "bytes4",
          "name": "interfaceId",
          "type": "bytes4"
        }
      ],
      "name": "supportsInterface",
      "outputs": [
        {
          "internalType": "bool",
          "name": "",
          "type": "bool"
        }
      ],
      "stateMutability": "view",
      "type": "function",
      "constant": true
    },
    {
      "inputs": [],
      "name": "symbol",
      "outputs": [
        {
          "internalType": "string",
          "name": "",
          "type": "string"
        }
      ],
      "stateMutability": "view",
      "type": "function",
      "constant": true
    },
    {
      "inputs": [
        {
          "internalType": "uint256",
          "name": "tokenId",
          "type": "uint256"
        }
      ],
      "name": "tokenURI",
      "outputs": [
        {
          "internalType": "string",
          "name": "",
          "type": "string"
        }
      ],
      "stateMutability": "view",
      "type": "function",
      "constant": true
    },
    {
      "inputs": [],
      "name": "totalSupply",
      "outputs": [
        {
          "internalType": "uint256",
          "name": "",
          "type": "uint256"
        }
      ],
      "stateMutability": "view",
      "type": "function",
      "constant": true
    },
    {
      "inputs": [
        {
          "internalType": "address",
          "name": "from",
          "type": "address"
        },
        {
          "internalType": "address",
          "name": "to",
          "type": "address"
        },
        {
          "internalType": "uint256",
          "name": "tokenId",
          "type": "uint256"
        }
      ],
      "name": "transferFrom",
      "outputs": [],
      "stateMutability": "nonpayable",
      "type": "function"
    },
    {
      "inputs": [
        {
          "internalType": "address",
          "name": "newOwner",
          "type": "address"
        }
      ],
      "name": "transferOwnership",
      "outputs": [],
      "stateMutability": "nonpayable",
      "type": "function"
    },
    {
      "inputs": [],
      "name": "toggleMintEnabled",
      "outputs": [],
      "stateMutability": "nonpayable",
      "type": "function"
    },
    {
      "inputs": [
        {
          "internalType": "uint256",
          "name": "_maxSupply",
          "type": "uint256"
        }
      ],
      "name": "setMaxSupply",
      "outputs": [],
      "stateMutability": "nonpayable",
      "type": "function"
    },
    {
      "inputs": [
        {
          "internalType": "uint256",
          "name": "_tokenId",
          "type": "uint256"
        }
      ],
      "name": "ownerOf",
      "outputs": [
        {
          "internalType": "address",
          "name": "_owner",
          "type": "address"
        }
      ],
      "stateMutability": "view",
      "type": "function",
      "constant": true
    },
    {
      "inputs": [
        {
          "internalType": "uint256",
          "name": "_tokenId",
          "type": "uint256"
        }
      ],
      "name": "mint",
      "outputs": [],
      "stateMutability": "payable",
      "type": "function",
      "payable": true
    }
  ],
  "bytecode": "0x608060405260026007556001600960006101000a81548160ff0219169083151502179055506040518060400160405280600681526020017f41766174617200000000000000000000000000000000000000000000000000008152506040518060400160405280600381526020017f41565400000000000000000000000000000000000000000000000000000000008152508160009081620000a19190620011b0565b508060019081620000b39190620011b0565b505050620000d6620000ca62000e6860201b60201c565b62000e7060201b60201c565b600a60405180606001604052806040518060400160405280600f81526020017f416e746f696e65202d20506572736f00000000000000000000000000000000008152508152602001604051806080016040528060598152602001620046ff6059913981526020016706f05b59d3b2000081525090806001815401808255809150506001900390600052602060002090600302016000909190919091506000820151816000019081620001899190620011b0565b506020820151816001019081620001a19190620011b0565b50604082015181600201555050600a60405180606001604052806040518060400160405280601081526020017f416e746f696e65202d20457175697065000000000000000000000000000000008152508152602001604051806080016040528060598152602001620048636059913981526020016706f05b59d3b2000081525090806001815401808255809150506001900390600052602060002090600302016000909190919091506000820151816000019081620002619190620011b0565b506020820151816001019081620002799190620011b0565b50604082015181600201555050600a60405180606001604052806040518060400160405280600e81526020017f4a756c69656e202d20506572736f0000000000000000000000000000000000008152508152602001604051806080016040528060598152602001620048bc6059913981526020016709b6e64a8ec6000081525090806001815401808255809150506001900390600052602060002090600302016000909190919091506000820151816000019081620003399190620011b0565b506020820151816001019081620003519190620011b0565b50604082015181600201555050600a60405180606001604052806040518060400160405280600f81526020017f4a756c69656e202d2045717569706500000000000000000000000000000000008152508152602001604051806080016040528060598152602001620045f46059913981526020016709b6e64a8ec6000081525090806001815401808255809150506001900390600052602060002090600302016000909190919091506000820151816000019081620004119190620011b0565b506020820151816001019081620004299190620011b0565b50604082015181600201555050600a60405180606001604052806040518060400160405280600d81526020017f4865646469202d20506572736f00000000000000000000000000000000000000815250815260200160405180608001604052806059815260200162004490605991398152602001670429d069189e000081525090806001815401808255809150506001900390600052602060002090600302016000909190919091506000820151816000019081620004e99190620011b0565b506020820151816001019081620005019190620011b0565b50604082015181600201555050600a60405180606001604052806040518060400160405280600e81526020017f4865646469202d20457175697065000000000000000000000000000000000000815250815260200160405180608001604052806059815260200162004915605991398152602001670429d069189e000081525090806001815401808255809150506001900390600052602060002090600302016000909190919091506000820151816000019081620005c19190620011b0565b506020820151816001019081620005d99190620011b0565b50604082015181600201555050600a60405180606001604052806040518060400160405280600d81526020017f59616e6e79202d20506572736f000000000000000000000000000000000000008152508152602001604051806080016040528060598152602001620046a660599139815260200167016345785d8a000081525090806001815401808255809150506001900390600052602060002090600302016000909190919091506000820151816000019081620006999190620011b0565b506020820151816001019081620006b19190620011b0565b50604082015181600201555050600a60405180606001604052806040518060400160405280600e81526020017f59616e6e79202d2045717569706500000000000000000000000000000000000081525081526020016040518060800160405280605981526020016200459b60599139815260200167016345785d8a000081525090806001815401808255809150506001900390600052602060002090600302016000909190919091506000820151816000019081620007719190620011b0565b506020820151816001019081620007899190620011b0565b50604082015181600201555050600a60405180606001604052806040518060400160405280600e81526020017f54686f6d6173202d20506572736f0000000000000000000000000000000000008152508152602001604051806080016040528060598152602001620045426059913981526020016702c68af0bb14000081525090806001815401808255809150506001900390600052602060002090600302016000909190919091506000820151816000019081620008499190620011b0565b506020820151816001019081620008619190620011b0565b50604082015181600201555050600a60405180606001604052806040518060400160405280600f81526020017f54686f6d6173202d2045717569706500000000000000000000000000000000008152508152602001604051806080016040528060598152602001620047b16059913981526020016702c68af0bb14000081525090806001815401808255809150506001900390600052602060002090600302016000909190919091506000820151816000019081620009219190620011b0565b506020820151816001019081620009399190620011b0565b50604082015181600201555050600a60405180606001604052806040518060400160405280600f81526020017f596f7573736566202d20506572736f00000000000000000000000000000000008152508152602001604051806080016040528060598152602001620049c7605991398152602001670c7d713b49da000081525090806001815401808255809150506001900390600052602060002090600302016000909190919091506000820151816000019081620009f99190620011b0565b50602082015181600101908162000a119190620011b0565b50604082015181600201555050600a60405180606001604052806040518060400160405280601081526020017f596f7573736566202d20457175697065000000000000000000000000000000008152508152602001604051806080016040528060598152602001620044e9605991398152602001670c7d713b49da00008152509080600181540180825580915050600190039060005260206000209060030201600090919091909150600082015181600001908162000ad19190620011b0565b50602082015181600101908162000ae99190620011b0565b50604082015181600201555050600a60405180606001604052806040518060400160405280601081526020017f4261707469737465202d20506572736f0000000000000000000000000000000081525081526020016040518060800160405280605981526020016200464d6059913981526020016706f05b59d3b200008152509080600181540180825580915050600190039060005260206000209060030201600090919091909150600082015181600001908162000ba99190620011b0565b50602082015181600101908162000bc19190620011b0565b50604082015181600201555050600a60405180606001604052806040518060400160405280601181526020017f4261707469737465202d2045717569706500000000000000000000000000000081525081526020016040518060800160405280605981526020016200480a6059913981526020016706f05b59d3b200008152509080600181540180825580915050600190039060005260206000209060030201600090919091909150600082015181600001908162000c819190620011b0565b50602082015181600101908162000c999190620011b0565b50604082015181600201555050600a60405180606001604052806040518060400160405280600c81526020017f4d61656c202d20506572736f000000000000000000000000000000000000000081525081526020016040518060800160405280605981526020016200475860599139815260200167058d15e1762800008152509080600181540180825580915050600190039060005260206000209060030201600090919091909150600082015181600001908162000d599190620011b0565b50602082015181600101908162000d719190620011b0565b50604082015181600201555050600a60405180606001604052806040518060400160405280600d81526020017f4d61656c202d204571756970650000000000000000000000000000000000000081525081526020016040518060800160405280605981526020016200496e60599139815260200167058d15e1762800008152509080600181540180825580915050600190039060005260206000209060030201600090919091909150600082015181600001908162000e319190620011b0565b50602082015181600101908162000e499190620011b0565b50604082015181600201555050600a8054905060088190555062001297565b600033905090565b6000600660009054906101000a900473ffffffffffffffffffffffffffffffffffffffff16905081600660006101000a81548173ffffffffffffffffffffffffffffffffffffffff021916908373ffffffffffffffffffffffffffffffffffffffff1602179055508173ffffffffffffffffffffffffffffffffffffffff168173ffffffffffffffffffffffffffffffffffffffff167f8be0079c531659141344cd1fd0a4f28419497f9722a3daafe3b4186f6b6457e060405160405180910390a35050565b600081519050919050565b7f4e487b7100000000000000000000000000000000000000000000000000000000600052604160045260246000fd5b7f4e487b7100000000000000000000000000000000000000000000000000000000600052602260045260246000fd5b6000600282049050600182168062000fb857607f821691505b60208210810362000fce5762000fcd62000f70565b5b50919050565b60008190508160005260206000209050919050565b60006020601f8301049050919050565b600082821b905092915050565b600060088302620010387fffffffffffffffffffffffffffffffffffffffffffffffffffffffffffffffff8262000ff9565b62001044868362000ff9565b95508019841693508086168417925050509392505050565b6000819050919050565b6000819050919050565b6000620010916200108b62001085846200105c565b62001066565b6200105c565b9050919050565b6000819050919050565b620010ad8362001070565b620010c5620010bc8262001098565b84845462001006565b825550505050565b600090565b620010dc620010cd565b620010e9818484620010a2565b505050565b5b81811015620011115762001105600082620010d2565b600181019050620010ef565b5050565b601f82111562001160576200112a8162000fd4565b620011358462000fe9565b8101602085101562001145578190505b6200115d620011548562000fe9565b830182620010ee565b50505b505050565b600082821c905092915050565b6000620011856000198460080262001165565b1980831691505092915050565b6000620011a0838362001172565b9150826002028217905092915050565b620011bb8262000f36565b67ffffffffffffffff811115620011d757620011d662000f41565b5b620011e3825462000f9f565b620011f082828562001115565b600060209050601f83116001811462001228576000841562001213578287015190505b6200121f858262001192565b8655506200128f565b601f198416620012388662000fd4565b60005b8281101562001262578489015182556001820191506020850194506020810190506200123b565b868310156200128257848901516200127e601f89168262001172565b8355505b6001600288020188555050505b505050505050565b6131e980620012a76000396000f3fe60806040526004361061014b5760003560e01c8063834d5fac116100b6578063c8539c4b1161006f578063c8539c4b1461046f578063c87b56dd146104ac578063d1239730146104e9578063d5abeb0114610514578063e985e9c51461053f578063f2fde38b1461057c5761014b565b8063834d5fac1461036c5780638da5cb5b146103ab57806395d89b41146103d6578063a0712d6814610401578063a22cb4651461041d578063b88d4fde146104465761014b565b806342842e0e1161010857806342842e0e1461027257806361f5baeb1461029b5780636352211e146102b25780636f8b44b0146102ef57806370a0823114610318578063715018a6146103555761014b565b806301ffc9a71461015057806306fdde031461018d578063081812fc146101b8578063095ea7b3146101f557806318160ddd1461021e57806323b872dd14610249575b600080fd5b34801561015c57600080fd5b5061017760048036038101906101729190612126565b6105a5565b604051610184919061216e565b60405180910390f35b34801561019957600080fd5b506101a2610687565b6040516101af9190612219565b60405180910390f35b3480156101c457600080fd5b506101df60048036038101906101da9190612271565b610719565b6040516101ec91906122df565b60405180910390f35b34801561020157600080fd5b5061021c60048036038101906102179190612326565b61075f565b005b34801561022a57600080fd5b50610233610876565b6040516102409190612375565b60405180910390f35b34801561025557600080fd5b50610270600480360381019061026b9190612390565b61087c565b005b34801561027e57600080fd5b5061029960048036038101906102949190612390565b6108dc565b005b3480156102a757600080fd5b506102b06108fc565b005b3480156102be57600080fd5b506102d960048036038101906102d49190612271565b610930565b6040516102e691906122df565b60405180910390f35b3480156102fb57600080fd5b5061031660048036038101906103119190612271565b61096d565b005b34801561032457600080fd5b5061033f600480360381019061033a91906123e3565b61097f565b60405161034c9190612375565b60405180910390f35b34801561036157600080fd5b5061036a610a36565b005b34801561037857600080fd5b50610393600480360381019061038e9190612271565b610a4a565b6040516103a293929190612410565b60405180910390f35b3480156103b757600080fd5b506103c0610b94565b6040516103cd91906122df565b60405180910390f35b3480156103e257600080fd5b506103eb610bbe565b6040516103f89190612219565b60405180910390f35b61041b60048036038101906104169190612271565b610c50565b005b34801561042957600080fd5b50610444600480360381019061043f9190612481565b610edf565b005b34801561045257600080fd5b5061046d600480360381019061046891906125f6565b610ef5565b005b34801561047b57600080fd5b5061049660048036038101906104919190612271565b610f57565b6040516104a391906122df565b60405180910390f35b3480156104b857600080fd5b506104d360048036038101906104ce9190612271565b610f8a565b6040516104e09190612219565b60405180910390f35b3480156104f557600080fd5b506104fe610ff2565b60405161050b919061216e565b60405180910390f35b34801561052057600080fd5b50610529611005565b6040516105369190612375565b60405180910390f35b34801561054b57600080fd5b5061056660048036038101906105619190612679565b61100b565b604051610573919061216e565b60405180910390f35b34801561058857600080fd5b506105a3600480360381019061059e91906123e3565b61109f565b005b60007f80ac58cd000000000000000000000000000000000000000000000000000000007bffffffffffffffffffffffffffffffffffffffffffffffffffffffff1916827bffffffffffffffffffffffffffffffffffffffffffffffffffffffff1916148061067057507f5b5e139f000000000000000000000000000000000000000000000000000000007bffffffffffffffffffffffffffffffffffffffffffffffffffffffff1916827bffffffffffffffffffffffffffffffffffffffffffffffffffffffff1916145b80610680575061067f82611122565b5b9050919050565b606060008054610696906126e8565b80601f01602080910402602001604051908101604052809291908181526020018280546106c2906126e8565b801561070f5780601f106106e45761010080835404028352916020019161070f565b820191906000526020600020905b8154815290600101906020018083116106f257829003601f168201915b5050505050905090565b60006107248261118c565b6004600083815260200190815260200160002060009054906101000a900473ffffffffffffffffffffffffffffffffffffffff169050919050565b600061076a826111d7565b90508073ffffffffffffffffffffffffffffffffffffffff168373ffffffffffffffffffffffffffffffffffffffff16036107da576040517f08c379a00000000000000000000000000000000000000000000000000000000081526004016107d19061278b565b60405180910390fd5b8073ffffffffffffffffffffffffffffffffffffffff166107f961125d565b73ffffffffffffffffffffffffffffffffffffffff16148061082857506108278161082261125d565b61100b565b5b610867576040517f08c379a000000000000000000000000000000000000000000000000000000000815260040161085e9061281d565b60405180910390fd5b6108718383611265565b505050565b60085481565b61088d61088761125d565b8261131e565b6108cc576040517f08c379a00000000000000000000000000000000000000000000000000000000081526004016108c3906128af565b60405180910390fd5b6108d78383836113b3565b505050565b6108f783838360405180602001604052806000815250610ef5565b505050565b6109046116ac565b600960009054906101000a900460ff1615600960006101000a81548160ff021916908315150217905550565b6000600b600083815260200190815260200160002060009054906101000a900473ffffffffffffffffffffffffffffffffffffffff169050919050565b6109756116ac565b8060078190555050565b60008073ffffffffffffffffffffffffffffffffffffffff168273ffffffffffffffffffffffffffffffffffffffff16036109ef576040517f08c379a00000000000000000000000000000000000000000000000000000000081526004016109e690612941565b60405180910390fd5b600360008373ffffffffffffffffffffffffffffffffffffffff1673ffffffffffffffffffffffffffffffffffffffff168152602001908152602001600020549050919050565b610a3e6116ac565b610a48600061172a565b565b600a8181548110610a5a57600080fd5b9060005260206000209060030201600091509050806000018054610a7d906126e8565b80601f0160208091040260200160405190810160405280929190818152602001828054610aa9906126e8565b8015610af65780601f10610acb57610100808354040283529160200191610af6565b820191906000526020600020905b815481529060010190602001808311610ad957829003601f168201915b505050505090806001018054610b0b906126e8565b80601f0160208091040260200160405190810160405280929190818152602001828054610b37906126e8565b8015610b845780601f10610b5957610100808354040283529160200191610b84565b820191906000526020600020905b815481529060010190602001808311610b6757829003601f168201915b5050505050908060020154905083565b6000600660009054906101000a900473ffffffffffffffffffffffffffffffffffffffff16905090565b606060018054610bcd906126e8565b80601f0160208091040260200160405190810160405280929190818152602001828054610bf9906126e8565b8015610c465780601f10610c1b57610100808354040283529160200191610c46565b820191906000526020600020905b815481529060010190602001808311610c2957829003601f168201915b5050505050905090565b600960009054906101000a900460ff16610c9f576040517f08c379a0000000000000000000000000000000000000000000000000000000008152600401610c96906129ad565b60405180910390fd5b600754600c60003373ffffffffffffffffffffffffffffffffffffffff1673ffffffffffffffffffffffffffffffffffffffff1681526020019081526020016000205410610d22576040517f08c379a0000000000000000000000000000000000000000000000000000000008152600401610d1990612a19565b60405180910390fd5b600a8181548110610d3657610d35612a39565b5b9060005260206000209060030201600201543414610d89576040517f08c379a0000000000000000000000000000000000000000000000000000000008152600401610d8090612ab4565b60405180910390fd5b600073ffffffffffffffffffffffffffffffffffffffff16600b600083815260200190815260200160002060009054906101000a900473ffffffffffffffffffffffffffffffffffffffff1673ffffffffffffffffffffffffffffffffffffffff1614610e2b576040517f08c379a0000000000000000000000000000000000000000000000000000000008152600401610e2290612b46565b60405180910390fd5b600c60003373ffffffffffffffffffffffffffffffffffffffff1673ffffffffffffffffffffffffffffffffffffffff1681526020019081526020016000206000815480929190610e7b90612b95565b919050555033600b600083815260200190815260200160002060006101000a81548173ffffffffffffffffffffffffffffffffffffffff021916908373ffffffffffffffffffffffffffffffffffffffff160217905550610edc33826117f0565b50565b610ef1610eea61125d565b838361180e565b5050565b610f06610f0061125d565b8361131e565b610f45576040517f08c379a0000000000000000000000000000000000000000000000000000000008152600401610f3c906128af565b60405180910390fd5b610f518484848461197a565b50505050565b600b6020528060005260406000206000915054906101000a900473ffffffffffffffffffffffffffffffffffffffff1681565b6060610f958261118c565b6000610f9f6119d6565b90506000815111610fbf5760405180602001604052806000815250610fea565b80610fc9846119ed565b604051602001610fda929190612c19565b6040516020818303038152906040525b915050919050565b600960009054906101000a900460ff1681565b60075481565b6000600560008473ffffffffffffffffffffffffffffffffffffffff1673ffffffffffffffffffffffffffffffffffffffff16815260200190815260200160002060008373ffffffffffffffffffffffffffffffffffffffff1673ffffffffffffffffffffffffffffffffffffffff16815260200190815260200160002060009054906101000a900460ff16905092915050565b6110a76116ac565b600073ffffffffffffffffffffffffffffffffffffffff168173ffffffffffffffffffffffffffffffffffffffff1603611116576040517f08c379a000000000000000000000000000000000000000000000000000000000815260040161110d90612caf565b60405180910390fd5b61111f8161172a565b50565b60007f01ffc9a7000000000000000000000000000000000000000000000000000000007bffffffffffffffffffffffffffffffffffffffffffffffffffffffff1916827bffffffffffffffffffffffffffffffffffffffffffffffffffffffff1916149050919050565b61119581611abb565b6111d4576040517f08c379a00000000000000000000000000000000000000000000000000000000081526004016111cb90612d1b565b60405180910390fd5b50565b6000806111e383611afc565b9050600073ffffffffffffffffffffffffffffffffffffffff168173ffffffffffffffffffffffffffffffffffffffff1603611254576040517f08c379a000000000000000000000000000000000000000000000000000000000815260040161124b90612d1b565b60405180910390fd5b80915050919050565b600033905090565b816004600083815260200190815260200160002060006101000a81548173ffffffffffffffffffffffffffffffffffffffff021916908373ffffffffffffffffffffffffffffffffffffffff160217905550808273ffffffffffffffffffffffffffffffffffffffff166112d8836111d7565b73ffffffffffffffffffffffffffffffffffffffff167f8c5be1e5ebec7d5bd14f71427d1e84f3dd0314c0f7b2291e5b200ac8c7c3b92560405160405180910390a45050565b60008061132a836111d7565b90508073ffffffffffffffffffffffffffffffffffffffff168473ffffffffffffffffffffffffffffffffffffffff16148061136c575061136b818561100b565b5b806113aa57508373ffffffffffffffffffffffffffffffffffffffff1661139284610719565b73ffffffffffffffffffffffffffffffffffffffff16145b91505092915050565b8273ffffffffffffffffffffffffffffffffffffffff166113d3826111d7565b73ffffffffffffffffffffffffffffffffffffffff1614611429576040517f08c379a000000000000000000000000000000000000000000000000000000000815260040161142090612dad565b60405180910390fd5b600073ffffffffffffffffffffffffffffffffffffffff168273ffffffffffffffffffffffffffffffffffffffff1603611498576040517f08c379a000000000000000000000000000000000000000000000000000000000815260040161148f90612e3f565b60405180910390fd5b6114a58383836001611b39565b8273ffffffffffffffffffffffffffffffffffffffff166114c5826111d7565b73ffffffffffffffffffffffffffffffffffffffff161461151b576040517f08c379a000000000000000000000000000000000000000000000000000000000815260040161151290612dad565b60405180910390fd5b6004600082815260200190815260200160002060006101000a81549073ffffffffffffffffffffffffffffffffffffffff02191690556001600360008573ffffffffffffffffffffffffffffffffffffffff1673ffffffffffffffffffffffffffffffffffffffff168152602001908152602001600020600082825403925050819055506001600360008473ffffffffffffffffffffffffffffffffffffffff1673ffffffffffffffffffffffffffffffffffffffff16815260200190815260200160002060008282540192505081905550816002600083815260200190815260200160002060006101000a81548173ffffffffffffffffffffffffffffffffffffffff021916908373ffffffffffffffffffffffffffffffffffffffff160217905550808273ffffffffffffffffffffffffffffffffffffffff168473ffffffffffffffffffffffffffffffffffffffff167fddf252ad1be2c89b69c2b068fc378daa952ba7f163c4a11628f55a4df523b3ef60405160405180910390a46116a78383836001611b3f565b505050565b6116b461125d565b73ffffffffffffffffffffffffffffffffffffffff166116d2610b94565b73ffffffffffffffffffffffffffffffffffffffff1614611728576040517f08c379a000000000000000000000000000000000000000000000000000000000815260040161171f90612eab565b60405180910390fd5b565b6000600660009054906101000a900473ffffffffffffffffffffffffffffffffffffffff16905081600660006101000a81548173ffffffffffffffffffffffffffffffffffffffff021916908373ffffffffffffffffffffffffffffffffffffffff1602179055508173ffffffffffffffffffffffffffffffffffffffff168173ffffffffffffffffffffffffffffffffffffffff167f8be0079c531659141344cd1fd0a4f28419497f9722a3daafe3b4186f6b6457e060405160405180910390a35050565b61180a828260405180602001604052806000815250611b45565b5050565b8173ffffffffffffffffffffffffffffffffffffffff168373ffffffffffffffffffffffffffffffffffffffff160361187c576040517f08c379a000000000000000000000000000000000000000000000000000000000815260040161187390612f17565b60405180910390fd5b80600560008573ffffffffffffffffffffffffffffffffffffffff1673ffffffffffffffffffffffffffffffffffffffff16815260200190815260200160002060008473ffffffffffffffffffffffffffffffffffffffff1673ffffffffffffffffffffffffffffffffffffffff16815260200190815260200160002060006101000a81548160ff0219169083151502179055508173ffffffffffffffffffffffffffffffffffffffff168373ffffffffffffffffffffffffffffffffffffffff167f17307eab39ab6107e8899845ad3d59bd9653f200f220920489ca2b5937696c318360405161196d919061216e565b60405180910390a3505050565b6119858484846113b3565b61199184848484611ba0565b6119d0576040517f08c379a00000000000000000000000000000000000000000000000000000000081526004016119c790612fa9565b60405180910390fd5b50505050565b606060405180602001604052806000815250905090565b6060600060016119fc84611d27565b01905060008167ffffffffffffffff811115611a1b57611a1a6124cb565b5b6040519080825280601f01601f191660200182016040528015611a4d5781602001600182028036833780820191505090505b509050600082602001820190505b600115611ab0578080600190039150507f3031323334353637383961626364656600000000000000000000000000000000600a86061a8153600a8581611aa457611aa3612fc9565b5b04945060008503611a5b575b819350505050919050565b60008073ffffffffffffffffffffffffffffffffffffffff16611add83611afc565b73ffffffffffffffffffffffffffffffffffffffff1614159050919050565b60006002600083815260200190815260200160002060009054906101000a900473ffffffffffffffffffffffffffffffffffffffff169050919050565b50505050565b50505050565b611b4f8383611e7a565b611b5c6000848484611ba0565b611b9b576040517f08c379a0000000000000000000000000000000000000000000000000000000008152600401611b9290612fa9565b60405180910390fd5b505050565b6000611bc18473ffffffffffffffffffffffffffffffffffffffff16612097565b15611d1a578373ffffffffffffffffffffffffffffffffffffffff1663150b7a02611bea61125d565b8786866040518563ffffffff1660e01b8152600401611c0c949392919061304d565b6020604051808303816000875af1925050508015611c4857506040513d601f19601f82011682018060405250810190611c4591906130ae565b60015b611cca573d8060008114611c78576040519150601f19603f3d011682016040523d82523d6000602084013e611c7d565b606091505b506000815103611cc2576040517f08c379a0000000000000000000000000000000000000000000000000000000008152600401611cb990612fa9565b60405180910390fd5b805181602001fd5b63150b7a0260e01b7bffffffffffffffffffffffffffffffffffffffffffffffffffffffff1916817bffffffffffffffffffffffffffffffffffffffffffffffffffffffff191614915050611d1f565b600190505b949350505050565b600080600090507a184f03e93ff9f4daa797ed6e38ed64bf6a1f0100000000000000008310611d85577a184f03e93ff9f4daa797ed6e38ed64bf6a1f0100000000000000008381611d7b57611d7a612fc9565b5b0492506040810190505b6d04ee2d6d415b85acef81000000008310611dc2576d04ee2d6d415b85acef81000000008381611db857611db7612fc9565b5b0492506020810190505b662386f26fc100008310611df157662386f26fc100008381611de757611de6612fc9565b5b0492506010810190505b6305f5e1008310611e1a576305f5e1008381611e1057611e0f612fc9565b5b0492506008810190505b6127108310611e3f576127108381611e3557611e34612fc9565b5b0492506004810190505b60648310611e625760648381611e5857611e57612fc9565b5b0492506002810190505b600a8310611e71576001810190505b80915050919050565b600073ffffffffffffffffffffffffffffffffffffffff168273ffffffffffffffffffffffffffffffffffffffff1603611ee9576040517f08c379a0000000000000000000000000000000000000000000000000000000008152600401611ee090613127565b60405180910390fd5b611ef281611abb565b15611f32576040517f08c379a0000000000000000000000000000000000000000000000000000000008152600401611f2990613193565b60405180910390fd5b611f40600083836001611b39565b611f4981611abb565b15611f89576040517f08c379a0000000000000000000000000000000000000000000000000000000008152600401611f8090613193565b60405180910390fd5b6001600360008473ffffffffffffffffffffffffffffffffffffffff1673ffffffffffffffffffffffffffffffffffffffff16815260200190815260200160002060008282540192505081905550816002600083815260200190815260200160002060006101000a81548173ffffffffffffffffffffffffffffffffffffffff021916908373ffffffffffffffffffffffffffffffffffffffff160217905550808273ffffffffffffffffffffffffffffffffffffffff16600073ffffffffffffffffffffffffffffffffffffffff167fddf252ad1be2c89b69c2b068fc378daa952ba7f163c4a11628f55a4df523b3ef60405160405180910390a4612093600083836001611b3f565b5050565b6000808273ffffffffffffffffffffffffffffffffffffffff163b119050919050565b6000604051905090565b600080fd5b600080fd5b60007fffffffff0000000000000000000000000000000000000000000000000000000082169050919050565b612103816120ce565b811461210e57600080fd5b50565b600081359050612120816120fa565b92915050565b60006020828403121561213c5761213b6120c4565b5b600061214a84828501612111565b91505092915050565b60008115159050919050565b61216881612153565b82525050565b6000602082019050612183600083018461215f565b92915050565b600081519050919050565b600082825260208201905092915050565b60005b838110156121c35780820151818401526020810190506121a8565b60008484015250505050565b6000601f19601f8301169050919050565b60006121eb82612189565b6121f58185612194565b93506122058185602086016121a5565b61220e816121cf565b840191505092915050565b6000602082019050818103600083015261223381846121e0565b905092915050565b6000819050919050565b61224e8161223b565b811461225957600080fd5b50565b60008135905061226b81612245565b92915050565b600060208284031215612287576122866120c4565b5b60006122958482850161225c565b91505092915050565b600073ffffffffffffffffffffffffffffffffffffffff82169050919050565b60006122c98261229e565b9050919050565b6122d9816122be565b82525050565b60006020820190506122f460008301846122d0565b92915050565b612303816122be565b811461230e57600080fd5b50565b600081359050612320816122fa565b92915050565b6000806040838503121561233d5761233c6120c4565b5b600061234b85828601612311565b925050602061235c8582860161225c565b9150509250929050565b61236f8161223b565b82525050565b600060208201905061238a6000830184612366565b92915050565b6000806000606084860312156123a9576123a86120c4565b5b60006123b786828701612311565b93505060206123c886828701612311565b92505060406123d98682870161225c565b9150509250925092565b6000602082840312156123f9576123f86120c4565b5b600061240784828501612311565b91505092915050565b6000606082019050818103600083015261242a81866121e0565b9050818103602083015261243e81856121e0565b905061244d6040830184612366565b949350505050565b61245e81612153565b811461246957600080fd5b50565b60008135905061247b81612455565b92915050565b60008060408385031215612498576124976120c4565b5b60006124a685828601612311565b92505060206124b78582860161246c565b9150509250929050565b600080fd5b600080fd5b7f4e487b7100000000000000000000000000000000000000000000000000000000600052604160045260246000fd5b612503826121cf565b810181811067ffffffffffffffff82111715612522576125216124cb565b5b80604052505050565b60006125356120ba565b905061254182826124fa565b919050565b600067ffffffffffffffff821115612561576125606124cb565b5b61256a826121cf565b9050602081019050919050565b82818337600083830152505050565b600061259961259484612546565b61252b565b9050828152602081018484840111156125b5576125b46124c6565b5b6125c0848285612577565b509392505050565b600082601f8301126125dd576125dc6124c1565b5b81356125ed848260208601612586565b91505092915050565b600080600080608085870312156126105761260f6120c4565b5b600061261e87828801612311565b945050602061262f87828801612311565b93505060406126408782880161225c565b925050606085013567ffffffffffffffff811115612661576126606120c9565b5b61266d878288016125c8565b91505092959194509250565b600080604083850312156126905761268f6120c4565b5b600061269e85828601612311565b92505060206126af85828601612311565b9150509250929050565b7f4e487b7100000000000000000000000000000000000000000000000000000000600052602260045260246000fd5b6000600282049050600182168061270057607f821691505b602082108103612713576127126126b9565b5b50919050565b7f4552433732313a20617070726f76616c20746f2063757272656e74206f776e6560008201527f7200000000000000000000000000000000000000000000000000000000000000602082015250565b6000612775602183612194565b915061278082612719565b604082019050919050565b600060208201905081810360008301526127a481612768565b9050919050565b7f4552433732313a20617070726f76652063616c6c6572206973206e6f7420746f60008201527f6b656e206f776e6572206f7220617070726f76656420666f7220616c6c000000602082015250565b6000612807603d83612194565b9150612812826127ab565b604082019050919050565b60006020820190508181036000830152612836816127fa565b9050919050565b7f4552433732313a2063616c6c6572206973206e6f7420746f6b656e206f776e6560008201527f72206f7220617070726f76656400000000000000000000000000000000000000602082015250565b6000612899602d83612194565b91506128a48261283d565b604082019050919050565b600060208201905081810360008301526128c88161288c565b9050919050565b7f4552433732313a2061646472657373207a65726f206973206e6f74206120766160008201527f6c6964206f776e65720000000000000000000000000000000000000000000000602082015250565b600061292b602983612194565b9150612936826128cf565b604082019050919050565b6000602082019050818103600083015261295a8161291e565b9050919050565b7f4c276163686174206573742073757370656e64752e0000000000000000000000600082015250565b6000612997601583612194565b91506129a282612961565b602082019050919050565b600060208201905081810360008301526129c68161298a565b9050919050565b7f566f7573206176657a206c65206d6178696d756d206427617661746172732e00600082015250565b6000612a03601f83612194565b9150612a0e826129cd565b602082019050919050565b60006020820190508181036000830152612a32816129f6565b9050919050565b7f4e487b7100000000000000000000000000000000000000000000000000000000600052603260045260246000fd5b7f4c652070726978206e2765737420706173206c6520626f6e2e00000000000000600082015250565b6000612a9e601983612194565b9150612aa982612a68565b602082019050919050565b60006020820190508181036000830152612acd81612a91565b9050919050565b7f436574206176617461722065737420706f737365646520706172207175656c7160008201527f7527756e2e000000000000000000000000000000000000000000000000000000602082015250565b6000612b30602583612194565b9150612b3b82612ad4565b604082019050919050565b60006020820190508181036000830152612b5f81612b23565b9050919050565b7f4e487b7100000000000000000000000000000000000000000000000000000000600052601160045260246000fd5b6000612ba08261223b565b91507fffffffffffffffffffffffffffffffffffffffffffffffffffffffffffffffff8203612bd257612bd1612b66565b5b600182019050919050565b600081905092915050565b6000612bf382612189565b612bfd8185612bdd565b9350612c0d8185602086016121a5565b80840191505092915050565b6000612c258285612be8565b9150612c318284612be8565b91508190509392505050565b7f4f776e61626c653a206e6577206f776e657220697320746865207a65726f206160008201527f6464726573730000000000000000000000000000000000000000000000000000602082015250565b6000612c99602683612194565b9150612ca482612c3d565b604082019050919050565b60006020820190508181036000830152612cc881612c8c565b9050919050565b7f4552433732313a20696e76616c696420746f6b656e2049440000000000000000600082015250565b6000612d05601883612194565b9150612d1082612ccf565b602082019050919050565b60006020820190508181036000830152612d3481612cf8565b9050919050565b7f4552433732313a207472616e736665722066726f6d20696e636f72726563742060008201527f6f776e6572000000000000000000000000000000000000000000000000000000602082015250565b6000612d97602583612194565b9150612da282612d3b565b604082019050919050565b60006020820190508181036000830152612dc681612d8a565b9050919050565b7f4552433732313a207472616e7366657220746f20746865207a65726f2061646460008201527f7265737300000000000000000000000000000000000000000000000000000000602082015250565b6000612e29602483612194565b9150612e3482612dcd565b604082019050919050565b60006020820190508181036000830152612e5881612e1c565b9050919050565b7f4f776e61626c653a2063616c6c6572206973206e6f7420746865206f776e6572600082015250565b6000612e95602083612194565b9150612ea082612e5f565b602082019050919050565b60006020820190508181036000830152612ec481612e88565b9050919050565b7f4552433732313a20617070726f766520746f2063616c6c657200000000000000600082015250565b6000612f01601983612194565b9150612f0c82612ecb565b602082019050919050565b60006020820190508181036000830152612f3081612ef4565b9050919050565b7f4552433732313a207472616e7366657220746f206e6f6e20455243373231526560008201527f63656976657220696d706c656d656e7465720000000000000000000000000000602082015250565b6000612f93603283612194565b9150612f9e82612f37565b604082019050919050565b60006020820190508181036000830152612fc281612f86565b9050919050565b7f4e487b7100000000000000000000000000000000000000000000000000000000600052601260045260246000fd5b600081519050919050565b600082825260208201905092915050565b600061301f82612ff8565b6130298185613003565b93506130398185602086016121a5565b613042816121cf565b840191505092915050565b600060808201905061306260008301876122d0565b61306f60208301866122d0565b61307c6040830185612366565b818103606083015261308e8184613014565b905095945050505050565b6000815190506130a8816120fa565b92915050565b6000602082840312156130c4576130c36120c4565b5b60006130d284828501613099565b91505092915050565b7f4552433732313a206d696e7420746f20746865207a65726f2061646472657373600082015250565b6000613111602083612194565b915061311c826130db565b602082019050919050565b6000602082019050818103600083015261314081613104565b9050919050565b7f4552433732313a20746f6b656e20616c7265616479206d696e74656400000000600082015250565b600061317d601c83612194565b915061318882613147565b602082019050919050565b600060208201905081810360008301526131ac81613170565b905091905056fea2646970667358221220f5f10da1cfd5eb4d35c4858623217dcfa7c64bc8a34d9b0193d94d858d2591bf64736f6c6343000813003368747470733a2f2f6261667962656962377a6b77776672756375786a357975346570626c6d76686e7561636f65666a757665686e7876693769367a6c76776f61677a342e697066732e6e667473746f726167652e6c696e6b2f68747470733a2f2f626166796265696176366b336170646976333578636d6f326e716f366a7769756167356534366a6a366b656a7337646c6e7a746134696369646a752e697066732e6e667473746f726167652e6c696e6b2f68747470733a2f2f6261667962656962647536703368753562376a66376b7067707070646e766e6c36666f3375333337653437776b65623369716c6536336f37776c792e697066732e6e667473746f726167652e6c696e6b2f68747470733a2f2f62616679626569687064796e33636c376a7a72647169636d64776f7073657833616f7068347864756e6832706b7261337961626a76626c766e6e342e697066732e6e667473746f726167652e6c696e6b2f68747470733a2f2f6261667962656965756d64797767616177326c376f6b6968666f686c36376167666163646468616f7066686c6b7374706b6268646a6e7875336d792e697066732e6e667473746f726167652e6c696e6b2f68747470733a2f2f62616679626569666e6d61773371336d7737736a75646e363333756e66736164637a756a7a64336237736279717977716a6a766269746f776d65692e697066732e6e667473746f726167652e6c696e6b2f68747470733a2f2f6261667962656962616d7132743733323269707676653779356473337a6a6a75616468667637357a6b67747732716d3733656e776d727272796a6d2e697066732e6e667473746f726167652e6c696e6b2f68747470733a2f2f6261667962656966613566766b656271666579336a347a793334666b6d77366b616b706536686b72656f356d786f787637623765706164796c75342e697066732e6e667473746f726167652e6c696e6b2f68747470733a2f2f62616679626569636377347376356c786f647965346771633775657865377832343279717a6a3272367a72646661697a69676e35726e68747274652e697066732e6e667473746f726167652e6c696e6b2f68747470733a2f2f626166796265696769623565706f6c7871656d646e7a7a786776617837756a356e65676236756d6d6e776c3434616d636c6477666a337035336e652e697066732e6e667473746f726167652e6c696e6b2f68747470733a2f2f62616679626569686976666f77736f66767a666c7074726a623769766a333374783734616d733765716d75666566736c77716677637733707966752e697066732e6e667473746f726167652e6c696e6b2f68747470733a2f2f6261667962656967766d726f6e336c64766d6d7a357365626479366335736e62716171707435797935616c3566336c6c6e6364636e75787a3666342e697066732e6e667473746f726167652e6c696e6b2f68747470733a2f2f62616679626569646571327670626d6f6c6f376b6e3270637277706667613276797666697972796669787662327a6c6f627769376c6977796679652e697066732e6e667473746f726167652e6c696e6b2f68747470733a2f2f62616679626569647068777866663566696a7175627467703461363463716237733572366c707971747932636d3676636533726e6d62646f7572792e697066732e6e667473746f726167652e6c696e6b2f68747470733a2f2f6261667962656961616e32687275613266326266697062347868716d746a77727a7534643474756e346c6a77766e3262706b6262613578627865712e697066732e6e667473746f726167652e6c696e6b2f68747470733a2f2f626166796265696478796f70686f33786935626a70376e63356f6a376865776d67697964646268697962746a737433747a757837727677676174342e697066732e6e667473746f726167652e6c696e6b2f",
  "immutableReferences": {},
  "source": "// SPDX-License-Identifier: MIT\npragma solidity ^0.8.0;\n\nimport \"@openzeppelin/contracts/token/ERC721/ERC721.sol\";\nimport \"@openzeppelin/contracts/access/Ownable.sol\";\n\ncontract TeamNft is ERC721, Ownable {\n\n\tuint256 public maxSupply = 2;\n\tuint256 public totalSupply;\n\tbool public mintEnabled = true;\n\n\tstruct Avatar {\n\t\tstring name;\n\t\tstring img;\n\t\tuint256 price;\n  \t}\n\n  \tAvatar[] public avatars;\n\n\tmapping (uint => address) public avatarToOwner;\n\tmapping (address => uint) ownerAvatarCount;\n\n\tconstructor() payable ERC721(\"Avatar\", \"AVT\") {\n\t\tavatars.push(Avatar(\"Antoine - Perso\", \"https://bafybeifa5fvkebqfey3j4zy34fkmw6kakpe6hkreo5mxoxv7b7epadylu4.ipfs.nftstorage.link/\", 0.5 ether));\n\t\tavatars.push(Avatar(\"Antoine - Equipe\", \"https://bafybeigvmron3ldvmmz5sebdy6c5snbqaqpt5yy5al5f3llncdcnuxz6f4.ipfs.nftstorage.link/\", 0.5 ether));\n\t\tavatars.push(Avatar(\"Julien - Perso\", \"https://bafybeideq2vpbmolo7kn2pcrwpfga2vyvfiyryfixvb2zlobwi7liwyfye.ipfs.nftstorage.link/\", 0.7 ether));\n\t\tavatars.push(Avatar(\"Julien - Equipe\", \"https://bafybeieumdywgaaw2l7okihfohl67agfacddhaopfhlkstpkbhdjnxu3my.ipfs.nftstorage.link/\", 0.7 ether));\n\t\tavatars.push(Avatar(\"Heddi - Perso\", \"https://bafybeib7zkwwfrucuxj5yu4epblmvhnuacoefjuvehnxvi7i6zlvwoagz4.ipfs.nftstorage.link/\", 0.3 ether));\n\t\tavatars.push(Avatar(\"Heddi - Equipe\", \"https://bafybeidphwxff5fijqubtgp4a64cqb7s5r6lpyqty2cm6vce3rnmbdoury.ipfs.nftstorage.link/\", 0.3 ether));\n\t\tavatars.push(Avatar(\"Yanny - Perso\", \"https://bafybeibamq2t7322ipvve7y5ds3zjjuadhfv75zkgtw2qm73enwmrrryjm.ipfs.nftstorage.link/\", 0.1 ether));\n\t\tavatars.push(Avatar(\"Yanny - Equipe\", \"https://bafybeihpdyn3cl7jzrdqicmdwopsex3aoph4xdunh2pkra3yabjvblvnn4.ipfs.nftstorage.link/\", 0.1 ether));\n\t\tavatars.push(Avatar(\"Thomas - Perso\", \"https://bafybeibdu6p3hu5b7jf7kpgpppdnvnl6fo3u337e47wkeb3iqle63o7wly.ipfs.nftstorage.link/\", 0.2 ether));\n\t\tavatars.push(Avatar(\"Thomas - Equipe\", \"https://bafybeigib5epolxqemdnzzxgvax7uj5negb6ummnwl44amcldwfj3p53ne.ipfs.nftstorage.link/\", 0.2 ether));\n\t\tavatars.push(Avatar(\"Youssef - Perso\", \"https://bafybeidxyopho3xi5bjp7nc5oj7hewmgiyddbhiybtjst3tzux7rvwgat4.ipfs.nftstorage.link/\", 0.9 ether));\n\t\tavatars.push(Avatar(\"Youssef - Equipe\", \"https://bafybeiav6k3apdiv35xcmo2nqo6jwiuag5e46jj6kejs7dlnzta4icidju.ipfs.nftstorage.link/\", 0.9 ether));\n\t\tavatars.push(Avatar(\"Baptiste - Perso\", \"https://bafybeifnmaw3q3mw7sjudn633unfsadczujzd3b7sbyqywqjjvbitowmei.ipfs.nftstorage.link/\", 0.5 ether));\n\t\tavatars.push(Avatar(\"Baptiste - Equipe\", \"https://bafybeihivfowsofvzflptrjb7ivj33tx74ams7eqmufefslwqfwcw3pyfu.ipfs.nftstorage.link/\", 0.5 ether));\n\t\tavatars.push(Avatar(\"Mael - Perso\", \"https://bafybeiccw4sv5lxodye4gqc7uexe7x242yqzj2r6zrdfaizign5rnhtrte.ipfs.nftstorage.link/\", 0.4 ether));\n\t\tavatars.push(Avatar(\"Mael - Equipe\", \"https://bafybeiaan2hrua2f2bfipb4xhqmtjwrzu4d4tun4ljwvn2bpkbba5xbxeq.ipfs.nftstorage.link/\", 0.4 ether));\n\n\t\ttotalSupply = avatars.length;\n\t}\n\n\t/*\n\t* Owner functions\n\t*/\n\tfunction toggleMintEnabled() external onlyOwner {\n\t\tmintEnabled  = !mintEnabled;\n\t}\n\n\tfunction setMaxSupply(uint _maxSupply) external onlyOwner {\n\t\tmaxSupply = _maxSupply;\n\t}\n\n\t/*\n\t* Users functions\n\t*/\n\tfunction ownerOf(uint256 _tokenId) public override view returns (address _owner) {\n\t\treturn avatarToOwner[_tokenId];\n\t}\n\n\tfunction mint(uint256 _tokenId) external payable {\n\t\trequire(mintEnabled, \"L'achat est suspendu.\");\n\t\trequire(ownerAvatarCount[msg.sender] < maxSupply, \"Vous avez le maximum d'avatars.\");\n\t\trequire(msg.value == avatars[_tokenId].price, \"Le prix n'est pas le bon.\");\n\t\trequire(avatarToOwner[_tokenId] == address(0x0), \"Cet avatar est possede par quelqu'un.\");\n\n\t\townerAvatarCount[msg.sender]++;\n\t\tavatarToOwner[_tokenId] = msg.sender;\n\t\t_safeMint(msg.sender, _tokenId);\n\t}\n}",
  "sourcePath": "/Users/antoine/Sites/blockchain-nft/contracts/TeamNft.sol",
  "compiler": {
    "name": "solc",
    "version": "0.8.19+commit.7dd6d404.Emscripten.clang"
  },
  "schemaVersion": "3.4.13",
  "updatedAt": "2023-04-06T14:18:29.796Z",
  "networkType": "ethereum",
  "devdoc": {
    "events": {
      "Approval(address,address,uint256)": {
        "details": "Emitted when `owner` enables `approved` to manage the `tokenId` token."
      },
      "ApprovalForAll(address,address,bool)": {
        "details": "Emitted when `owner` enables or disables (`approved`) `operator` to manage all of its assets."
      },
      "Transfer(address,address,uint256)": {
        "details": "Emitted when `tokenId` token is transferred from `from` to `to`."
      }
    },
    "kind": "dev",
    "methods": {
      "approve(address,uint256)": {
        "details": "See {IERC721-approve}."
      },
      "balanceOf(address)": {
        "details": "See {IERC721-balanceOf}."
      },
      "getApproved(uint256)": {
        "details": "See {IERC721-getApproved}."
      },
      "isApprovedForAll(address,address)": {
        "details": "See {IERC721-isApprovedForAll}."
      },
      "name()": {
        "details": "See {IERC721Metadata-name}."
      },
      "owner()": {
        "details": "Returns the address of the current owner."
      },
      "renounceOwnership()": {
        "details": "Leaves the contract without owner. It will not be possible to call `onlyOwner` functions anymore. Can only be called by the current owner. NOTE: Renouncing ownership will leave the contract without an owner, thereby removing any functionality that is only available to the owner."
      },
      "safeTransferFrom(address,address,uint256)": {
        "details": "See {IERC721-safeTransferFrom}."
      },
      "safeTransferFrom(address,address,uint256,bytes)": {
        "details": "See {IERC721-safeTransferFrom}."
      },
      "setApprovalForAll(address,bool)": {
        "details": "See {IERC721-setApprovalForAll}."
      },
      "supportsInterface(bytes4)": {
        "details": "See {IERC165-supportsInterface}."
      },
      "symbol()": {
        "details": "See {IERC721Metadata-symbol}."
      },
      "tokenURI(uint256)": {
        "details": "See {IERC721Metadata-tokenURI}."
      },
      "transferFrom(address,address,uint256)": {
        "details": "See {IERC721-transferFrom}."
      },
      "transferOwnership(address)": {
        "details": "Transfers ownership of the contract to a new account (`newOwner`). Can only be called by the current owner."
      }
    },
    "version": 1
  },
  "userdoc": {
    "kind": "user",
    "methods": {},
    "version": 1
  }
}